:100000000C9458000C9480000C9480000C94800098
:100010000C9480000C9480000C9480000C94800060
:100020000C9480000C9480000C9480000C94800050
:100030000C9480000C9480000C9480000C94800040
:100040000C941C020C9480000C9480000C94800092
:100050000C9480000C9480000C9480000C94800020
:100060000C9466020C94800000000000250028001B
:100070002B00040404040404040402020202020229
:10008000030303030303010204081020408001025C
:1000900004081020010204081020000000080002DB
:1000A0000100000304070000000000000000F2044B
:1000B00011241FBECFEFD8E0DEBFCDBF11E0A0E01E
:1000C000B1E0E6E1FAE002C005900D92A831B10777
:1000D000D9F721E0A8E1B1E001C01D92A83EB20726
:1000E000E1F710E0C8E5D0E004C02197FE010E94CE
:1000F0000305C735D107C9F70E9485030C9409058C
:100100000C9400000895089590E0FC01E656FF4F1E
:100110002491FC01EA57FF4F3491FC01EE58FF4F48
:10012000E491EE23C9F0222339F0233001F1A8F441
:10013000213019F1223029F1F0E0EE0FFF1FE859CC
:10014000FF4FA591B4918FB7F894EC91611126C03F
:1001500030953E233C938FBF08952730A9F0283077
:10016000C9F0243049F7809180008F7D03C08091D1
:1001700080008F7780938000DFCF84B58F7784BD38
:10018000DBCF84B58F7DFBCF8091B0008F778093DC
:10019000B000D2CF8091B0008F7DF9CF3E2BDACF67
:1001A0003FB7F8948091810190918201A0918301E1
:1001B000B091840126B5A89B05C02F3F19F0019688
:1001C000A11DB11D3FBFBA2FA92F982F8827BC01B1
:1001D000CD01620F711D811D911D42E0660F771FD9
:1001E000881F991F4A95D1F7089520915901260F2C
:1001F0003327331F21323105ECF42091B101FC018A
:1002000090E080E0243069F082E00895A0915901E7
:100210002191AC01475C5E4FA40FB52FB11D2C930B
:100220000196861798F380915901680F60935901E0
:1002300080E0089581E008951092B10181E08093FB
:10024000B00110928B0161E082E10E94840061E0C4
:1002500083E10E948400E9EBF0E080818E7F80835F
:1002600080818D7F808388E48093B80085E48093CB
:10027000BC000895CF93DF9391E0909338018823D9
:10028000B9F0C091B800D091BA008091BC008A7BCF
:100290008093BC0060E082E10E94840060E083E122
:1002A0000E9484000E941C01D093BA00C093B80041
:1002B000DF91CF9108950895E0918A01809189019D
:1002C000E81730F4F0E0E85EFE4F808190E008959A
:1002D0008FEF9FEF089590918A01809189012FEF10
:1002E0003FEF981748F4E92FF0E0E85EFE4F2081D9
:1002F00030E09F5F90938A01C90108958091890140
:1003000090918A01891B990B0895CF92DF92EF9209
:10031000FF920F931F93CF93DF937C01CB018A0150
:100320002091B701222389F0EB016B01C40ED51E89
:10033000CC15DD0569F06991D701ED91FC91019033
:10034000F081E02DC7010995F3CF642F0E94F500DD
:10035000C801DF91CF911F910F91FF90EF90DF9037
:10036000CF900895CF93DF931F92CDB7DEB7698307
:100370002091B7012223F9F02091DA01203258F0C0
:1003800021E030E0FC013383228390E080E00F9095
:10039000DF91CF9108958091B801E82FF0E0E75404
:1003A000FE4F998190838F5F8093B8018093DA012B
:1003B00081E090E0ECCF61E0CE0101960E94F50073
:1003C000F7CF90E080E0089585ED8093BC008091A8
:1003D000B3019091B401A091B501B091B601079617
:1003E000A11DB11D23E0B695A795979587952A95F0
:1003F000D1F72091BC0024FD03C01092B1010895F3
:100400004091B3015091B4016091B5017091B60172
:10041000452B462B472B69F30097A105B10541F009
:1004200025E32A95F1F700000197A109B109E1CF71
:100430008091B2010C943A011F920F920FB60F9265
:1004400011242F933F938F939F93AF93BF938091EA
:100450007D0190917E01A0917F01B091800130914A
:100460007C0123E0230F2D3758F50196A11DB11D06
:1004700020937C0180937D0190937E01A0937F0166
:10048000B09380018091810190918201A0918301BC
:10049000B09184010196A11DB11D809381019093BB
:1004A0008201A0938301B0938401BF91AF919F918A
:1004B0008F913F912F910F900FBE0F901F90189525
:1004C00026E8230F0296A11DB11DD2CF1F920F92D5
:1004D0000FB60F9211242F933F934F935F936F9317
:1004E0007F938F939F93AF93BF93EF93FF938091ED
:1004F000B900887F803609F44AC0F0F5883209F4E3
:10050000A7C018F5803109F49BC0B8F4882309F41A
:10051000F9C0883009F494C0FF91EF91BF91AF9179
:100520009F918F917F916F915F914F913F912F910B
:100530000F900FBE0F901F901895883109F488C056
:10054000803251F78093AF0114C0803409F49DC00C
:1005500040F48033B9F38833F9F68093AF0185EC2A
:10056000B0C0803509F485C0883509F496C0883458
:1005700099F60E94E401D0CF883909F48CC038F58F
:10058000883729F050F4883611F0803729F683E057
:100590008093B10110927B0157C0883809F47BC069
:1005A000803919F0803809F0B7CF80917B01803213
:1005B00008F071C0E0917B0181E08E0F80937B0198
:1005C0008091BB00F0E0E55AFE4F80833DC0803B48
:1005D00039F0E0F4803A09F479C0883A09F09CCF08
:1005E00084E08093B10110925A0110925901E09178
:1005F0008701F091880109958091590181110FC0FF
:1006000081E0809359011092390109C0803C09F4BE
:10061000A6CF883C09F4A3CF883B09F07DCFE091B9
:100620005A0181E08E0F80935A01F0E0E75CFE4FA3
:1006300080818093BB0090915A018091590129C01B
:1006400080918C018093BB0085EC8093BC0064CFCB
:100650009091AE018091AD01981758F5E091AE01EF
:1006600081E08E0F8093AE01F0E0E357FE4F808172
:10067000E9CFE091AE0181E08E0F8093AE018091D1
:10068000BB00F0E0E357FE4F80839091AE01809174
:10069000AD019817C8F285E8D8CFE091AE0181E0AE
:1006A0008E0F8093AE018091BB00F0E0E357FE4FC8
:1006B00080838091B00181115CCF81E080938B01B8
:1006C00084EA8093BC001092B10126CF85EC809320
:1006D000BC001092B10180917B01803230F4E09136
:1006E0007B01F0E0E55AFE4F108260917B0170E0E3
:1006F000E0918501F09186018BE591E009951092DA
:100700007B010ACF1092AF0134CF789484B5826018
:1007100084BD84B5816084BD85B5826085BD85B5A5
:10072000816085BD80916E00816080936E00109223
:10073000810080918100826080938100809181009E
:10074000816080938100809180008160809380002F
:100750008091B10084608093B1008091B00081608D
:100760008093B00080917A00846080937A008091B9
:100770007A00826080937A0080917A008160809311
:100780007A0080917A00806880937A001092C1008C
:1007900010928A01109289010E941C0182E890E067
:1007A000909388018093870183E890E0909386017D
:1007B00080938501D1E094E0792E25EE622E35EC10
:1007C000532E00E010E042E0442E33243A94D093BC
:1007D000B7017092D9011092B8011092DA0145E088
:1007E00050E062E171E08CED91E00E948501609142
:1007F000DB018CED91E00E94B201B090DA0120E2C1
:100800002B1508F48FC0C091D9010E94D0006B0154
:100810007C018091B101811160C04092B101D093FF
:10082000B0013092AF011092AE01B092AD01A9EBD0
:10083000B1E0EDE8F1E0B812ACC010928C0180910B
:100840008C01CC0FC82BC0938C0180918B0181301F
:1008500009F0A3C010928B010E94D0006B017C01B3
:1008600080918C018093BB008091B3019091B40181
:10087000A091B501B091B601892B8A2B8B2B99F0F1
:100880000E94D0008090B3019090B401A090B50177
:10089000B090B6016C197D098E099F0986169706DE
:1008A000A806B906D8F18091BC0083FDD9CF50923B
:1008B000BC000E94D0006B017C018091B1018230AC
:1008C00009F46EC08091AF018F3F61F18091AF015B
:1008D000803241F18091AF0125C08091B3019091A8
:1008E000B401A091B501B091B601892B8A2B8B2B55
:1008F00009F48FCF0E94D0002091B3013091B40150
:100900004091B5015091B6016C197D098E099F097E
:10091000261737074807590708F07BCF8091B201A7
:100920000E943A011092B8011092DA011092B701B8
:100930008091DB018F5F8093DB010E94D0004B012F
:100940005C0184EFC82EDD24D394E12CF12C0E94AD
:10095000D000681979098A099B09683E73408105AE
:100960009105A8F381E0C81AD108E108F10828EE42
:10097000820E23E0921EA11CB11CC114D104E1041B
:10098000F10429F70115110509F421CF0E94000097
:100990001ECF9D9191938F5F4ECF6092BC0089CF07
:1009A0008091B3019091B401A091B501B091B601CD
:1009B000892B8A2B8B2B09F480CF0E94D00080904A
:1009C000B3019090B401A090B501B090B6016C193C
:1009D0007D098E099F0986169706A806B90608F0B4
:1009E0006CCF9CCFECEDF1E01382128288EE93E0A5
:1009F000A0E0B0E084839583A683B78384E091E090
:100A0000918380830895EE0FFF1F0590F491E02DF0
:060A10000994F894FFCFE9
:100A160000000000B2018501E1015B017E016B016E
:080A26005C01782069732000D7
:00000001FF
