:100000000C9434000C9451000C9451000C94510049
:100010000C9451000C9451000C9451000C9451001C
:100020000C9451000C9451000C9451000C9451000C
:100030000C9451000C9484000C9451000C945100C9
:100040000C9451000C9451000C9451000C945100EC
:100050000C9451000C9451000C9451000C945100DC
:100060000C9451000C94510011241FBECFEFD8E026
:10007000DEBFCDBF11E0A0E0B1E0E0EAF2E002C0F7
:1000800005900D92AC33B107D9F721E0ACE3B1E0B4
:1000900001C01D92A837B207E1F70E9429010C9414
:1000A0004E010C94000085B940984198429A2FE780
:1000B00088E391E0215080409040E1F700C00000CB
:1000C000429808959093C5008093C40088E180937E
:1000D000C1008EE08093C2000895E0ECF0E09081D2
:1000E00095FFFDCF8093C6000895CF93DF93EC0179
:1000F0008881882331F021960E946D0089918111B9
:10010000FBCFDF91CF9108951F920F920FB60F9200
:1001100011240F931F932F933F934F935F936F93EC
:100120007F938F939F93AF93BF93CF93DF93EF937F
:10013000FF938BE791EE90938500809384008091EC
:10014000000190910101892B71F14A9B16C082E058
:1001500091E00E94750080913E0190913F01FC0169
:10016000EE0FFF1FE05CFE4F21E030E03183208383
:10017000019690933F0180933E014A9914C084E018
:1001800091E00E94750080913E0190913F01FC0139
:10019000EE0FFF1FE05CFE4F1182108201969093DC
:1001A0003F0180933E0180913C0190913D01019679
:1001B00090933D0180933C014C97B1F58DE00E94F6
:1001C0006D0086E091E00E9475008DE00E946D0058
:1001D00080913E0190913F0101971816190604F590
:1001E00000E411E0C0E0D0E0F8018081918181302D
:1001F000910529F484E091E00E94750006C0892BE6
:1002000021F482E091E00E94750022960C5F1F4F5E
:1002100080913E0190913F010197C817D90724F3BF
:100220001092010110920001FF91EF91DF91CF91A7
:10023000BF91AF919F918F917F916F915F914F91FE
:100240003F912F911F910F910F900FBE0F901F9014
:1002500018958FEF8AB910928000E1E8F0E01082E3
:100260008081856080838BE791EE909385008093F9
:100270008400EFE6F0E0808181608083789483E3FE
:1002800090E00E94620080E80E94530082E291E0C8
:100290000E9475008DE00E946D00FFCFF894FFCFA3
:1002A00001003100300052656D6F74652052432D9E
:1002B000303520646573636F646966696361646186
:1002C0003A0052656D6F74652052432D30352063BE
:0C02D0006F646966696361646F3A000046
:00000001FF
