:100000000C9435000C945D000C945D000C945D0024
:100010000C945D000C945D000C945D000C945D00EC
:100020000C945D000C945D000C945D000C945D00DC
:100030000C945D000C945D000C945D000C945D00CC
:100040000C949D030C945D000C946B030C9445037D
:100050000C945D000C945D000C945D000C945D00AC
:100060000C945D000C945D003A0711241FBECFEF85
:10007000D8E0DEBFCDBF11E0A0E0B1E0EAE1F6E1FB
:1000800002C005900D92A83BB107D9F728E0A8EB74
:10009000B1E001C01D92A835B207E1F710E0C5E359
:1000A000D0E004C02197FE010E94050BC433D107A4
:1000B000C9F70E94E7030C940B0B0C940000AF925D
:1000C000BF92CF92DF92EF92FF920F931F93CF9345
:1000D000DF936C017B018B01040F151FEB015E01A7
:1000E000AE18BF08C017D10759F06991D601ED913C
:1000F000FC910190F081E02DC6010995892B79F7DB
:10010000C501DF91CF911F910F91FF90EF90DF908C
:10011000CF90BF90AF900895FC01538D448D252F53
:1001200030E0842F90E0821B930B541710F0CF9691
:10013000089501970895FC01918D828D981761F0C3
:10014000A28DAE0FBF2FB11D5D968C91928D9F5FDA
:100150009F73928F90E008958FEF9FEF0895FC01B9
:10016000918D828D981731F0828DE80FF11D858D6C
:1001700090E008958FEF9FEF0895FC01918D228DFF
:10018000892F90E0805C9F4F821B91098F73992784
:1001900008958BEB97E00E94BD0021E0892B09F4C4
:1001A00020E0822F089580E090E0892B29F00E94C2
:1001B000C90081110C9400000895FC01A48DA80FC2
:1001C000B92FB11DA35ABF4F2C91848D90E0019699
:1001D0008F739927848FA689B7892C93A089B189B9
:1001E0008C91837080648C93938D848D981306C05A
:1001F0000288F389E02D80818F7D80830895EF92BE
:10020000FF920F931F93CF93DF93EC0181E0888FD0
:100210009B8D8C8D98131AC0E889F989808185FFA0
:1002200015C09FB7F894EE89FF896083E889F98942
:1002300080818370806480839FBF81E090E0DF9144
:10024000CF911F910F91FF90EF900895F62E0B8D97
:1002500010E00F5F1F4F0F731127E02E8C8D8E1152
:100260000CC00FB607FCFACFE889F989808185FFB9
:10027000F5CFCE010E94DD00F1CFEB8DEC0FFD2F0D
:10028000F11DE35AFF4FF0829FB7F8940B8FEA8974
:10029000FB8980818062CFCFCF93DF93EC01888D83
:1002A0008823B9F0AA89BB89E889F9898C9185FDF1
:1002B00003C0808186FD0DC00FB607FCF7CF8C917F
:1002C00085FFF2CF808185FFEDCFCE010E94DD005A
:1002D000E9CFDF91CF910895FC0101900020E9F76B
:1002E0003197AF01481B590BBC018BEB97E00C9485
:1002F0005F008F929F92AF92BF920F931F93CF9305
:10030000DF93CDB7DEB7A1970FB6F894DEBF0FBE6F
:10031000CDBF19A2423008F44AE08E010F5D1F4F95
:10032000842E912CB12CA12CA50194010E943D0892
:10033000E62FB901CA01EA30F4F4E05DD801EE938A
:100340008D01232B242B252B79F790E080E010974B
:1003500019F0CD010E946C01A1960FB6F894DEBF92
:100360000FBECDBFDF91CF911F910F91BF90AF9086
:100370009F908F900895E95CE1CFCF93DF930E9427
:100380006C01EC0186E291E00E946C018C0F9D1FD4
:10039000DF91CF9108950C946C014F925F926F9210
:1003A0007F928F929F92AF92BF92CF92DF92EF9205
:1003B000FF920F931F93CF936B017C01742EAC01BE
:1003C0009B010E94EB0A882399F089E291E0CF918A
:1003D0001F910F91FF90EF90DF90CF90BF90AF9063
:1003E0009F908F907F906F905F904F900C946C01D6
:1003F00046015701E894B7F82FEF3FEF4FE75FE76B
:10040000C501B4010E94EB0A81110DC02FEF3FEF2F
:100410004FE75FE7C501B4010E94DB0818161CF422
:100420008DE291E0D4CF2FEF3FEF4FE75FE4C701BC
:10043000B6010E94330A18161CF481E391E0C7CF7D
:100440002FEF3FEF4FE75FECC701B6010E94DB08DB
:1004500087FDF3CF20E030E0A901C701B6010E947B
:10046000DB0810E000E087FF0AC06DE28BEB97E04D
:100470000E94FF008C01F7FAF094F7F8F094C0E0C6
:1004800060E070E080E09FE37C1641F020E030E027
:1004900040E251E40E94E008CF5FF6CFA701960149
:1004A0000E946F082B013C010E9452094B015C0124
:1004B0004AE00E9479017C01E00EF11ECC23C1F1DB
:1004C000C501B4010E9481099B01AC01C301B201C5
:1004D0000E946E084B015C016EE28BEB97E00E947C
:1004E000FF00E80EF91EC15018F120E030E040E2B4
:1004F00051E4C501B4010E94380A2B013C010E945D
:1005000052094B01B12CA12C4AE0C501B4010E9453
:100510007901E80EF91EC501B4010E9481099B0111
:10052000AC01C301B2010E946E084B015C01DBCF3C
:10053000C701CF911F910F91FF90EF90DF90CF9067
:10054000BF90AF909F908F907F906F905F904F90F3
:100550000895CF93DF9344E00E94CD01EC0186E241
:1005600091E00E946C018C0F9D1FDF91CF91089547
:10057000CF93DF9385E391E00E94CB0110921002AC
:1005800010920F02C3E1DCE480910F0290911002FF
:1005900043970CF070C085E391E00E94CB0110926C
:1005A0000E0210920D0220910D0230910E028091E8
:1005B0000F0290911002233131050CF047C0223117
:1005C000310569F582319105C9F46091B1077091E7
:1005D000B2078091B3079091B40744E00E94CD0127
:1005E00087E391E00E94CB0180910D0290910E0271
:1005F000019690930E0280930D02D5CFD89FF00103
:10060000D99FF00D1124E75AFD4F608171818281DD
:10061000938144E00E94CD0189E391E0E3CFC89F3C
:10062000F001C99FF00D1124E20FF31FEE0FFF1F21
:10063000EE0FFF1FEF5EFD4F60817181828193811C
:1006400044E00E94CD018CE391E0CCCF429771F45D
:1006500087E391E00E94CB0180910F0290911002FC
:1006600001969093100280930F028ECF88E291E062
:100670000E94BD01F1CF88E291E00E94BD0188E2B5
:1006800091E0DF91CF910C94BD011F920F920FB6B4
:100690000F9211242F933F934F935F936F937F9308
:1006A0008F939F93AF93BF93EF93FF938BEB97E061
:1006B0000E94DD00FF91EF91BF91AF919F918F91CB
:1006C0007F916F915F914F913F912F910F900FBE4E
:1006D0000F901F9018951F920F920FB60F92112432
:1006E0002F938F939F93EF93FF93E091CB07F0911C
:1006F000CC078081E091D107F091D20782FD1BC029
:1007000090818091D4078F5F8F732091D5078217D6
:1007100041F0E091D407F0E0E554F84F958F8093D5
:10072000D407FF91EF919F918F912F910F900FBE62
:100730000F901F9018958081F4CF1F920F920FB6E3
:100740000F9211242F933F938F939F93AF93BF9357
:100750008091B7079091B807A091B907B091BA07F7
:100760003091BC0123E0230F2D3758F50196A11DD0
:10077000B11D2093BC018093B7079093B807A09355
:10078000B907B093BA078091B8019091B901A091CF
:10079000BA01B091BB010196A11DB11D8093B801B2
:1007A0009093B901A093BA01B093BB01BF91AF91EF
:1007B0009F918F913F912F910F900FBE0F901F909F
:1007C000189526E8230F0296A11DB11DD2CFCF9315
:1007D000DF9300D000D000D0CDB7DEB7789484B5D9
:1007E000826084BD84B5816084BD85B5826085BD2D
:1007F00085B5816085BD80916E00816080936E00BB
:1008000010928100809181008260809381008091AC
:10081000810081608093810080918000816080935D
:1008200080008091B10084608093B1008091B0001D
:1008300081608093B00080917A00846080937A0018
:1008400080917A00826080937A0080917A00816042
:1008500080937A0080917A00806880937A00109269
:10086000C1008FE391E00E94BD01E091CB07F091C0
:10087000CC0782E08083E091C707F091C80710821F
:10088000E091C907F091CA078FEC80831092D307DB
:10089000E091CF07F091D00786E08083E091CD070B
:1008A000F091CE07808180618083E091CD07F09147
:1008B000CE07808188608083E091CD07F091CE07DC
:1008C000808180688083E091CD07F091CE078081A0
:1008D0008F7D808380E480937C0080917A008064A7
:1008E00080937A0080917A0086FDFCCF8091780019
:1008F00060917900762F682F072E000C880B990BDA
:10090000611571058105910511F00E94020886E4C8
:1009100091E00E94BD011092100210920F02F3E1CB
:10092000BF2EA7EBCA2EABE0DA2EE12CF12C809182
:100930000F029091100243970CF04AC010920E02E1
:1009400010920D0280910D0290910E024397B4F522
:100950000E94B30700910D0210910E0220910F0228
:1009600030911002B29EA001B39E500D1124400F91
:10097000511F440F551F440F551F4F5E5D4F5A8343
:100980004983A70196010E940B086F5F7F4F8F4F2D
:100990009F4F0E94830920E030E04AE754E40E9420
:1009A000E008E981FA8160837183828393830F5F1A
:1009B0001F4F10930E0200930D02C4CF80910F02BF
:1009C0009091100201969093100280930F02AFCF86
:1009D0000E94B80220910D0230910E023A832983C1
:1009E0008090090290900A02A0900B02B0900C0235
:1009F0000DEB11E041E1242E42E0342E710168013B
:100A000035EBE31637E0F30691F11A821982812C57
:100A1000912C5401E981FA81EE0FFF1FEE0FFF1FA9
:100A2000EE0DFF1D60817181828193819B01AC017C
:100A30000E94380A9B01AC01C501B4010E946F08F5
:100A40004B015C0149815A814F5F5F4F5A83498353
:100A500043315105F9F60E94AB0AF6016193719397
:100A6000819391936F01FCE4EF0EF11CC9CF2981B2
:100A70003A8130930E0220930D0283E190E090932F
:100A8000100280930F028092090290920A02A092B3
:100A90000B02B0920C028090000190900101A09096
:100AA0000201B0900301C0900401D0900501E090D4
:100AB0000601F09007011A821982F8012081318124
:100AC00042815381C501B4010E94380A4B015C0187
:100AD00005C049815A81493051057CF389819A8149
:100AE00009970A9758F4F801208131814281538196
:100AF000C701B6010E94380A6B017C0129813A8145
:100B00002F5F3F4F3A8329830C5F1F4F23313105FD
:100B100001F73093B6072093B507809200019092B9
:100B20000101A0920201B0920301C0920401D0928F
:100B30000501E0920601F09207018EE491E00E9427
:100B4000BD018091B5079091B60721E1822E22E088
:100B5000922E9A828982D12CC12C1E821D8201E1A3
:100B600012E0B12CA12CED81FE81EA15FB050CF001
:100B700067C020E030E0A901E981FA8160817181DC
:100B8000828193810E94DB0881111EC090E080E089
:100B9000D401A80FB91F4D915D916D917C91139770
:100BA000F801E80FF91F40805180628073804D92F8
:100BB0005D926D927C92139740835183628373831D
:100BC00004968C34910521F7E981FA8120813181E5
:100BD00042815381F801EC0DFD1D6081718182819C
:100BE00093810E94E0082B013C01F12CE12C98013B
:100BF0002E0D3F1D3C832B83F401EE0DFF1D208144
:100C0000318142815381C301B2010E94380A9B01A4
:100C1000AC01EB81FC8160817181828193810E94B2
:100C20006E08EB81FC816083718382839383F4E09F
:100C3000EF0EF11C2CE4E216F104C9F683E190E01A
:100C40003FEFA31AB30A045B1F4F43E1A416B1049C
:100C500009F089CFED81FE813196FE83ED83F4E0CA
:100C6000CF0ED11C29813A81205B3F4F3A832983E3
:100C70003CE4830E911C4D815E814331510509F0A6
:100C80006ECF9093B6078093B50750930E024093B2
:100C90000D025093100240930F020E94B802809000
:100CA000080190900901A0900A01B0900B01C0903A
:100CB0000C01D0900D01E0900E01F0900F011A820E
:100CC0001982F1012081318142815381C501B40132
:100CD0000E94380A4B015C0104C089819A810997FE
:100CE00084F389819A8109970A9758F4F101208148
:100CF000318142815381C701B6010E94380A6B01DC
:100D00007C0129813A812F5F3F4F3A83298330E567
:100D1000230E311C49815A8143315105F1F650931C
:100D2000B6074093B507C0920C01D0920D01E09236
:100D30000E01F0920F018092080190920901A09299
:100D40000A01B0920B0120E030E0A901C501B40115
:100D50000E94DB0887FF0CC0B7FAB094B7F8B094D4
:100D60008092080190920901A0920A01B0920B01B1
:100D700020E030E0A901C701B6010E94DB0887FF2F
:100D80000CC0F7FAF094F7F8F094C0920C01D092EE
:100D90000D01E0920E01F0920F0186E691E00E94B3
:100DA000CB01609108017091090180910A01909135
:100DB0000B010E94A9028EE691E00E94CB01609196
:100DC0000C0170910D0180910E0190910F010E9414
:100DD000A90286E791E00E94BD0188E291E00E94AD
:100DE000BD0188E891E00E94CB0160910001709103
:100DF000010180910201909103010E94A9028FE8F4
:100E000091E00E94CB0160910401709105018091F5
:100E10000601909107010E94A90286E991E00E94D3
:100E2000BD0188E291E00E94BD0188EA91E00E9444
:100E3000BD0188E291E00E94BD012FB7F894609156
:100E4000B7077091B8078091B9079091BA072FBF83
:100E50004AE00E94790186E291E00E946C0180E004
:100E600090E0892BE1F30E94C9008823C1F30E941E
:100E70000000F5CFEBEBF7E01382128288EE93E0EF
:100E8000A0E0B0E084839583A683B78388E191E0F6
:100E90009183808385EC90E09587848784EC90E053
:100EA0009787868780EC90E0918B808B81EC90E037
:100EB000938B828B82EC90E0958B848B86EC90E018
:100EC000978B868B118E128E138E148E08958F92AF
:100ED0009F92AF92BF92CF92DF92EF92FF92CF9309
:100EE000DF93EC01688179818A819B8161157105AD
:100EF0008105910521F464E279ED8BE597E02DE120
:100F000033EF41E050E00E940B0849015A019B0178
:100F1000AC01A7EAB1E40E942A086B017C01ACEEA7
:100F2000B4EFA50194010E943808C60ED71EE81E32
:100F3000F91EF7FE06C081E0C81AD108E10880E872
:100F4000F80AC882D982EA82FB82C701B6019F777C
:100F5000DF91CF91FF90EF90DF90CF90BF90AF9057
:100F60009F908F9008958F929F92AF92BF92CF9251
:100F7000DF92EF92FF9260911001709111018091C8
:100F8000120190911301611571058105910521F4FC
:100F900064E279ED8BE597E02DE133EF41E050E03D
:100FA0000E940B0849015A019B01AC01A7EAB1E478
:100FB0000E942A086B017C01ACEEB4EFA5019401FC
:100FC0000E943808C60ED71EE81EF91EF7FE06C09E
:100FD00081E0C81AD108E10880E8F80AC09210013F
:100FE000D0921101E0921201F0921301C701B601F3
:100FF0009F77FF90EF90DF90CF90BF90AF909F9042
:101000008F900895609310017093110180931201E5
:10101000909313010895052E97FB1EF400940E94EF
:10102000220857FD07D00E943D0807FC03D04EF46C
:101030000C94220850954095309521953F4F4F4F85
:101040005F4F089590958095709561957F4F8F4F74
:101050009F4F08950E945F08A59F900DB49F900D2B
:10106000A49F800D911D11240895B7FF0C942A08A8
:101070000E942A08821B930B0895A1E21A2EAA1B34
:10108000BB1BFD010DC0AA1FBB1FEE1FFF1FA21738
:10109000B307E407F50720F0A21BB30BE40BF50B35
:1010A000661F771F881F991F1A9469F760957095BE
:1010B000809590959B01AC01BD01CF010895A29F41
:1010C000B001B39FC001A39F700D811D1124911D1C
:1010D000B29F700D811D1124911D08955058BB279A
:1010E000AA270E9486080C94F9090E94EB0938F09F
:1010F0000E94F20920F039F49F3F19F426F40C9471
:10110000E8090EF4E095E7FB0C94E209E92F0E9450
:101110000A0A58F3BA17620773078407950720F085
:1011200079F4A6F50C942C0A0EF4E0950B2EBA2F48
:10113000A02D0B01B90190010C01CA01A0011124DD
:10114000FF27591B99F0593F50F4503E68F11A1689
:10115000F040A22F232F342F4427585FF3CF46951A
:1011600037952795A795F0405395C9F77EF41F163C
:10117000BA0B620B730B840BBAF09150A1F0FF0F06
:10118000BB1F661F771F881FC2F70EC0BA0F621FF2
:10119000731F841F48F4879577956795B795F795E2
:1011A0009E3F08F0B0CF9395880F08F09927EE0F77
:1011B0009795879508950E94BE0908F481E00895E7
:1011C0000E94F4080C94F9090E94F20958F00E9458
:1011D000EB0940F029F45F3F29F00C94E20951112A
:1011E0000C942D0A0C94E8090E940A0A68F39923CA
:1011F000B1F3552391F3951B550BBB27AA27621713
:101200007307840738F09F5F5F4F220F331F441F1F
:10121000AA1FA9F335D00E2E3AF0E0E832D0915053
:101220005040E695001CCAF72BD0FE2F29D0660F40
:10123000771F881FBB1F261737074807AB07B0E883
:1012400009F0BB0B802DBF01FF2793585F4F3AF089
:101250009E3F510578F00C94E2090C942D0A5F3FF3
:10126000E4F3983ED4F3869577956795B795F7950F
:101270009F5FC9F7880F911D9695879597F90895F7
:10128000E1E0660F771F881FBB1F62177307840793
:10129000BA0720F0621B730B840BBA0BEE1F88F7A2
:1012A000E09508950E94120A88F09F5798F0B92F90
:1012B0009927B751B0F0E1F0660F771F881F991F8B
:1012C0001AF0BA95C9F714C0B13091F00E942C0AF7
:1012D000B1E008950C942C0A672F782F8827B85F07
:1012E00039F0B93FCCF3869577956795B395D9F7E3
:1012F0003EF490958095709561957F4F8F4F9F4FED
:101300000895E89409C097FB3EF4909580957095F8
:1013100061957F4F8F4F9F4F9923A9F0F92F96E941
:10132000BB279395F695879577956795B795F111B6
:10133000F8CFFAF4BB0F11F460FF1BC06F5F7F4F53
:101340008F4F9F4F16C0882311F096E911C0772365
:1013500021F09EE8872F762F05C0662371F096E86E
:10136000862F70E060E02AF09A95660F771F881F3D
:10137000DAF7880F9695879597F90895990F0008E1
:10138000550FAA0BE0E8FEEF16161706E807F90757
:10139000C0F012161306E407F50798F0621B730BF2
:1013A000840B950B39F40A2661F0232B242B252B73
:1013B00021F408950A2609F4A140A6958FEF811D16
:1013C000811D089597F99F6780E870E060E00895B7
:1013D0009FEF80EC089500240A941616170618064D
:1013E0000906089500240A94121613061406050629
:1013F0000895092E0394000C11F4882352F0BB0FBA
:1014000040F4BF2B11F460FF04C06F5F7F4F8F4F1C
:101410009F4F089557FD9058440F551F59F05F3F57
:1014200071F04795880F97FB991F61F09F3F79F006
:1014300087950895121613061406551FF2CF469588
:10144000F1DF08C0161617061806991FF1CF86950A
:101450007105610508940895E894BB2766277727EE
:10146000CB0197F908950E94BE0908F48FEF089503
:101470000E944B0A0C94F9090E94EB0938F00E9473
:10148000F20920F0952311F00C94E2090C94E8097C
:1014900011240C942D0A0E940A0A70F3959FC1F33F
:1014A000950F50E0551F629FF001729FBB27F00D12
:1014B000B11D639FAA27F00DB11DAA1F649F662767
:1014C000B00DA11D661F829F2227B00DA11D621FB6
:1014D000739FB00DA11D621F839FA00D611D221F70
:1014E000749F3327A00D611D231F849F600D211D54
:1014F000822F762F6A2F11249F5750409AF0F1F0D7
:1015000088234AF0EE0FFF1FBB1F661F771F881F3F
:1015100091505040A9F79E3F510580F00C94E2098C
:101520000C942D0A5F3FE4F3983ED4F386957795AB
:101530006795B795F795E7959F5FC1F7FE2B880FE5
:10154000911D9695879597F9089519F416F40C94C2
:10155000E8090C94F00A0E94120AB8F39923C9F31F
:10156000B6F39F57550B87FF0E94FE0A0024A0E6A2
:1015700040EA900180585695979528F4805C660F54
:10158000771F881F20F026173707480730F4621BA3
:10159000730B840B202931294A2BA69517940794A5
:1015A000202531254A2758F7660F771F881F20F01E
:1015B00026173707480730F4620B730B840B200D96
:1015C000311D411DA09581F7B901842F9158880FD5
:1015D0009695879508950E94BE09880B990B0895EA
:1015E0009F3F31F0915020F4879577956795B79597
:1015F000880F911D9695879597F9089591505040C1
:10160000660F771F881FD2F70895EE0FFF1F059012
:0A161000F491E02D0994F894FFCF47
:10161A000000803F0000803F0000803F0000803FC4
:10162A000100000000000000FF005F008C004C0178
:10163A00BD009B00AF000D0A006E616E00696E6608
:10164A00006F7666005B005D005D2C002C20004177
:10165A006E7469676F004D617472697A3A004D6100
:10166A007472697A20547269616E67756C61726905
:10167A007A6164613A00446574313A202000446515
:10168A0074323A202000446574203D204465743148
:10169A00202A20446574320044656E313A200044A1
:1016AA00656E323A200044656E203D2044656E31F5
:1016BA00202A2044656E32004465744E203D204441
:0816CA0065742F44656E0000F9
:00000001FF
