:100000000C9463000C948B000C948B000C94FC02F9
:100010000C94FC020C94FC020C948B000C948B004E
:100020000C948B000C948B000C948B000C948B0024
:100030000C948B000C948B000C948B000C948B0014
:100040000C945A020C948B000C94CA020C94A402D7
:100050000C948B000C948B000C948B000C948B00F4
:100060000C948B000C948B0000000008000201002F
:100070000003040700000000000000000000000072
:1000800023002600290000000000240027002A0089
:1000900000000000250028002B00040404040404D0
:1000A0000404020202020202030303030303010227
:1000B00004081020408001020408102001020408F6
:1000C0001020C003010611241FBECFEFD8E0DEBF11
:1000D000CDBF11E0A0E0B1E0E0EBFCE002C0059094
:1000E0000D92A633B107D9F722E0A6E3B1E001C033
:1000F0001D92AF33B207E1F710E0C2E6D0E004C0D2
:100100002197FE010E944506C136D107C9F70E941A
:10011000A9040C944B060C940000AF92BF92CF92AE
:10012000DF92EF92FF920F931F93CF93DF936C01B7
:100130007B018B01040F151FEB015E01AE18BF0898
:10014000C017D10759F06991D601ED91FC9101904A
:10015000F081E02DC6010995892B79F7C501DF9162
:10016000CF911F910F91FF90EF90DF90CF90BF90B4
:10017000AF900895FC01538D448D252F30E0842FDE
:1001800090E0821B930B541710F0CF9608950197BF
:100190000895FC01918D828D981761F0A28DAE0FAC
:1001A000BF2FB11D5D968C91928D9F5F9F73928F33
:1001B00090E008958FEF9FEF0895FC01918D828D5F
:1001C000981731F0828DE80FF11D858D90E008952C
:1001D0008FEF9FEF0895FC01918D228D892F90E084
:1001E000805C9F4F821B91098F739927089583E844
:1001F00091E00E94EB0021E0892B09F420E0822F9E
:10020000089580E090E0892B29F00E94F700811189
:100210000C9400000895FC01A48DA80FB92FB11D06
:10022000A35ABF4F2C91848D90E001968F7399272C
:10023000848FA689B7892C93A089B1898C9183700A
:1002400080648C93938D848D981306C00288F38903
:10025000E02D80818F7D80830895EF92FF920F9330
:100260001F93CF93DF93EC0181E0888F9B8D8C8D62
:1002700098131AC0E889F989808185FF15C09FB756
:10028000F894EE89FF896083E889F9898081837019
:10029000806480839FBF81E090E0DF91CF911F91C8
:1002A0000F91FF90EF900895F62E0B8D10E00F5FE9
:1002B0001F4F0F731127E02E8C8D8E110CC00FB6BF
:1002C00007FCFACFE889F989808185FFF5CFCE0157
:1002D0000E940B01F1CFEB8DEC0FFD2FF11DE35AC6
:1002E000FF4FF0829FB7F8940B8FEA89FB898081DA
:1002F0008062CFCFCF93DF93EC01888D8823B9F054
:10030000AA89BB89E889F9898C9185FD03C0808120
:1003100086FD0DC00FB607FCF7CF8C9185FFF2CF9D
:10032000808185FFEDCFCE010E940B01E9CFDF91E7
:10033000CF910895209178013091790128173907DC
:1003400071F49091760180917701981741F0E091D6
:100350007601F0E0EA5CFE4F808190E008958FEF37
:100360009FEF08950895EF92FF920F931F93CF93FD
:10037000DF93DC015C96ED90FC905D97E114F10455
:1003800079F481E090E013969C938E93129790E01D
:1003900080E0DF91CF911F910F91FF90EF90089532
:1003A0005196ED91FC91529750968C915097982FC1
:1003B00090950FB75E962C915E97122F127021FDCB
:1003C0006095F8942081112319F1282B2083E701EF
:1003D0002197F1F728E0462F50E0308160FF1AC0E6
:1003E000382B3083E7012197F1F7BA0175956795AE
:1003F000215089F7112381F08081892380830FBFE9
:100400005C968D919C910197F1F781E090E0C1CFCE
:100410002923DCCF3923E5CF9081892BEFCF2091A1
:100420007801309179012817390771F480917701AB
:100430002091760190E0805C9F4F821B910960E4DF
:1004400070E00E941D06089590E080E008952091DC
:1004500078013091790128173907B9F49091760124
:1004600080917701981789F0E0917601F0E0EA5CDD
:10047000FE4F80812091760130E02F5F3F4F2F7338
:1004800033272093760190E008958FEF9FEF089532
:1004900090E080E00895FB0101900020E9F731979A
:1004A000AF01461B570BDC01ED91FC910280F381FB
:1004B000E02D09941F920F920FB60F9211242F93E3
:1004C0003F938F939F93AF93BF9380917F019091C0
:1004D0008001A0918101B091820130917E0123E0E1
:1004E000230F2D3758F50196A11DB11D20937E01D4
:1004F00080937F0190938001A0938101B09382014A
:1005000080917A0190917B01A0917C01B0917D0155
:100510000196A11DB11D80937A0190937B01A09358
:100520007C01B0937D01BF91AF919F918F913F91DD
:100530002F910F900FBE0F901F90189526E8230F54
:100540000296A11DB11DD2CF1F920F920FB60F922E
:1005500011242F933F934F935F936F937F938F93C8
:100560009F93AF93BF93EF93FF9383E891E00E9433
:100570000B01FF91EF91BF91AF919F918F917F916F
:100580006F915F914F913F912F910F900FBE0F9000
:100590001F9018951F920F920FB60F9211242F9350
:1005A0008F939F93EF93FF93E0919301F0919401C8
:1005B0008081E0919901F0919A0182FD1BC09081A8
:1005C00080919C018F5F8F7320919D01821741F074
:1005D000E0919C01F0E0ED57FE4F958F80939C01D8
:1005E000FF91EF919F918F912F910F900FBE0F90E0
:1005F0001F9018958081F4CF1F920F920FB60F9223
:1006000011242F933F934F935F936F937F938F9317
:100610009F93AF93BF93EF93FF93E0917801F09195
:100620007901309749F0A685B7858585968D91FF2C
:1006300014C09C918923A1F4FF91EF91BF91AF91D8
:100640009F918F917F916F915F914F913F912F91EA
:100650000F900FBE0F901F9018959C91892361F702
:10066000A389B4899C918589809589238C938689F7
:1006700097890197F1F7608D718DA685B7855585AE
:1006800038E020E0CB010197F1F7822F90E09595BB
:100690008795282F4C91452309F02068315091F718
:1006A000868D81FD20958091770190E001968F7372
:1006B000992730917601381799F0A0917701B0E031
:1006C000AA5CBE4F2C9380937701828D938D019706
:1006D000F1F7A389B4898C919589892B8C93ACCF40
:1006E000868D8160868FF1CF90E0FC01E859FF4F45
:1006F0002491FC01E255FF4F3491FC01E656FF4F77
:10070000E491EE23C9F0222339F0233001F1A8F45B
:10071000213019F1223029F1F0E0EE0FFF1FE057F0
:10072000FF4FA591B4918FB7F894EC91611126C059
:1007300030953E233C938FBF08952730A9F0283091
:10074000C9F0243049F7809180008F7D03C08091EB
:1007500080008F7780938000DFCF84B58F7784BD52
:10076000DBCF84B58F7DFBCF8091B0008F778093F6
:10077000B000D2CF8091B0008F7DF9CF3E2BDACF81
:100780000F931F93CF93DF931092860110928501F0
:1007900088EE93E0A0E0B0E0809387019093880119
:1007A000A0938901B0938A0124E031E03093840161
:1007B0002093830125EC30E03093900120938F014A
:1007C00024EC30E0309392012093910120EC30E052
:1007D000309394012093930121EC30E03093960103
:1007E0002093950122EC30E03093980120939701FB
:1007F00026EC30E030939A012093990110929C01ED
:1008000010929D0110929E0110929F01109223025E
:10081000109222028093240290932502A093260234
:10082000B093270286E191E0909321028093200209
:10083000109237021092360210923902109238024A
:1008400010923B0210923A0210923D0210923C022A
:1008500060913E026E7F6D7F60933E02669561708F
:1008600081E0682782E00E94740340EB50E0FA01C7
:1008700064918CE990E0FC012491222399F030E00E
:10088000220F331FF901EA57FF4FA591B491F901E7
:10089000E057FF4F259134912FB7F8943C91632B8B
:1008A0006C932FBFFA01449140933002FC01849174
:1008B000E82FF0E0EE0FFF1FE057FF4F8591949176
:1008C000909332028093310201EB10E0F801249101
:1008D000CDE9D0E0FE0184918823C9F090E0880F33
:1008E000991FFC01EA57FF4FA591B491FC01E05715
:1008F000FF4F459154913FB7F8949C91822F80957A
:1009000098239C93FA019081892380833FBF809133
:100910003E0281FD04C061E083E00E94740383E035
:1009200080932C02F801049100932D02FE01C491E2
:10093000EC2FF0E0EE0FFF1FE458FF4F85919491EC
:1009400090932F0280932E02DF91CF911F910F91F0
:100950000895789484B5826084BD84B5816084BD37
:1009600085B5826085BD85B5816085BD80916E004D
:10097000816080936E00109281008091810082607E
:1009800080938100809181008160809381008091BB
:1009900080008160809380008091B10084608093AA
:1009A000B1008091B00081608093B00080917A00A6
:1009B000846080937A0080917A00826080937A00CC
:1009C00080917A00816080937A0080917A008068BB
:1009D00080937A001092C100E0919301F09194010C
:1009E00082E08083E0919301F09194011082E09184
:1009F0008F01F09190011082E0919101F0919201AC
:100A000080E1808310929B01E0919701F091980121
:100A100086E08083E0919501F0919601808180616C
:100A20008083E0919501F0919601808188608083B8
:100A3000E0919501F0919601808180688083E0913A
:100A40009501F091960180818F7D808364E271E051
:100A500083E891E00E944B026CE271E083E891E050
:100A60000E944B0210923B0210923A0210923902FD
:100A700010923802109237021092360285E690E00A
:100A800090933D0280933C0290912C02963108F0A5
:100A900047C021E230E0309337022093360223E64C
:100AA00030E0309339022093380222E430E0309372
:100AB0003B0220933A022091680084E0983048F08D
:100AC00031E09E3008F430E081E001C0880F3A95B3
:100AD000EAF7822B809368002DE630E0983050F0E2
:100AE0002BE630E09E3030F02CE630E0963110F00E
:100AF00030E020E03093340220933302292F30E09D
:100B0000983008F071C081E001C0880F9A95EAF72B
:100B10008093350280913C0290913D020197F1F75C
:100B200080913A0290913B02892B49F1E091780142
:100B3000F091790182E0E032F80709F1309739F05D
:100B4000A389B4899C918589809589238C93809110
:100B50003E028E7F80933E021092770110927601C2
:100B600080E292E09093790180937801E0913302E2
:100B7000F0913402808190913502892B80836FE25D
:100B800071E080E292E00E944B026CE271E080E250
:100B900092E00E944B02C0E0D0E080E292E00E942E
:100BA0000F02892B49F080E292E00E942702682F11
:100BB00083E891E00E942D0183E891E00E94EB0020
:100BC000892B49F083E891E00E94C900682F80E2F8
:100BD00092E00E94B301209701F30E94F70088235E
:100BE000E1F20E940000D9CF9E3040F42850310934
:100BF00081E001C0880F2A95EAF78ACF2E5031098B
:100C0000F7CF86E191E090932102809320028091BA
:100C10007801909179018052924071F4E091330211
:100C2000F0913402908180913502809589238083F0
:100C30001092790110927801089597FB072E16F40F
:100C4000009407D077FD09D00E94310607FC05D03B
:100C50003EF4909581959F4F0895709561957F4FD3
:100C60000895AA1BBB1B51E107C0AA1FBB1FA617F3
:100C7000B70710F0A61BB70B881F991F5A95A9F745
:100C800080959095BC01CD010895EE0FFF1F059052
:100C9000F491E02D099410E0C2E6D0E004C0FE011A
:100CA0000E9445062196C336D107C9F7F894FFCFB5
:100CB000000000002D018D00BA007A01EB00C90090
:100CC000DD0000000000B3018D004802B2010F02F8
:100CD00027029A01456E7472616461000D0A005327
:060CE0006169646100007F
:00000001FF
