:100000000C9434000C9451000C9451000C94510049
:100010000C9451000C940F010C9451000C9451005D
:100020000C9451000C9451000C9451000C9451000C
:100030000C9451000C9451000C9451000C945100FC
:100040000C9451000C9451000C9451000C945100EC
:100050000C9451000C9451000C9451000C945100DC
:100060000C9451000C94510011241FBECFEFD8E026
:10007000DEBFCDBF11E0A0E0B1E0EEE1F3E002C0F1
:1000800005900D92A032B107D9F721E0A0E2B1E0CE
:1000900001C01D92A732B207E1F70E9463010C94E0
:1000A0008D010C9400009093C5008093C40088E1FA
:1000B0008093C1008EE08093C2000895E0ECF0E0F0
:1000C000908195FFFDCF8093C60008958091220115
:1000D0009091230101969093230180932201E0ECFB
:1000E000F0E080818823ECF78091C6000895CF93DB
:1000F000DF93EC018881882331F021960E945E0015
:1001000089918111FBCFDF91CF91089585B94098F6
:100110004198429A2FE788E391E021508040904037
:10012000E1F700C000004298089588E390E00E9443
:1001300086008EE090E00E94860086E090E00E94BB
:10014000860081E090E00E948600089585B9409A7B
:100150004198429A2FE788E391E0215080409040F7
:10016000E1F700C0000042980895CF93DF93EC01BF
:100170008881882331F021960E94A60089918111FF
:10018000FBCFDF91CF91089581E00E9486008FE937
:100190009FE00197F1F700C0000080E80E94860010
:1001A000089580912201909123018031910511F5EC
:1001B0008091200190912101009799F40E94C40040
:1001C00080E80E9486008DE00E945E0081E090E061
:1001D000909321018093200110922301109222011B
:1001E00008950197D9F480EC0E9486008DE00E946A
:1001F0005E000895809794F08091200190912101F4
:10020000019761F40E94C40080E80E9486008DE09E
:100210000E945E00109223011092220108951F9205
:100220000F920FB60F9211242F933F934F935F932A
:100230006F937F938F939F93AF93BF93EF93FF93AE
:100240004A9912C081E4809326010E94A600809101
:1002500026010E945E008091220190912301019667
:1002600090932301809322014B9912C082E48093E2
:1002700026010E94A600809126010E945E008091C6
:1002800022019091230101969093230180932201F2
:100290000E94D100FF91EF91BF91AF919F918F91FB
:1002A0007F916F915F914F913F912F910F900FBE72
:1002B0000F901F90189584E0809368008CE08093E5
:1002C0006D00789408958FEF84B987E087B90E9414
:1002D000950083E390E00E94530080E80E9486002E
:1002E00080E091E00E94B50081E191E00E947700FA
:1002F0008DE00E945E0080EC0E9486000E945B01FF
:100300000E94D1000E946600809326010E94A600F0
:0E031000809126010E945E00F3CFF894FFCF8B
:10031E00496E746572666163652053657269616CBE
:10032E000055534152542070617261204C43440079
:00000001FF
