:020000040000FA
:100000000C947A000C94A2000C94A2000C94A20010
:100010000C94A2000C94A2000C94A2000C94A200D8
:100020000C94A2000C94A2000C94A2000C94A200C8
:100030000C94A2000C94A2000C94A2000C94A200B8
:100040000C94FB030C94A2000C94C9030C94A3031E
:100050000C94A2000C94A2000C94A2000C94A20098
:100060000C94A2000C94A2000000005D002C200063
:100070005D2C005D005B005B004D617472697A3A33
:10008000004D617472697A20547269616E67756C93
:100090006172697A6164613A00004465744E203D82
:1000A000204465742F44656E000044656E203D2039
:1000B00044656E31202A2044656E320044656E32FC
:1000C0003A200044656E313A200000446574203DBA
:1000D0002044657431202A204465743200446574DC
:1000E000323A202000446574313A2020004E6F7669
:1000F0006F00500711241FBECFEFD8E0DEBFCDBF89
:1001000011E0A0E0B1E0E6E4F6E102C005900D9256
:10011000A633B107D9F727E0A6E3B1E001C01D92ED
:10012000AA38B207E1F710E0CAE7D0E004C021978F
:10013000FE010E941B0BC937D107C9F70E94450475
:100140000C94210B0C940000AF92BF92CF92DF92DF
:10015000EF92FF920F931F93CF93DF936C017B017C
:100160008B01040F151FEB015E01AE18BF08C0170D
:10017000D10759F06991D601ED91FC910190F08180
:10018000E02DC6010995892B79F7C501DF91CF9143
:100190001F910F91FF90EF90DF90CF90BF90AF90A5
:1001A0000895FC01538D448D252F30E0842F90E07D
:1001B000821B930B541710F0CF9608950197089562
:1001C000FC01918D828D981761F0A28DAE0FBF2F2B
:1001D000B11D5D968C91928D9F5F9F73928F90E081
:1001E00008958FEF9FEF0895FC01918D828D9817F0
:1001F00031F0828DE80FF11D858D90E008958FEF2D
:100200009FEF0895FC01918D228D892F90E0805CF5
:100210009F4F821B91098F73992708958DEE96E069
:100220000E94020121E0892B09F420E0822F089529
:1002300080E090E0892B29F00E940E0181110C943E
:1002400000000895FC01A48DA80FB92FB11DA35A79
:10025000BF4F2C91848D90E001968F739927848FE6
:10026000A689B7892C93A089B1898C918370806409
:100270008C93938D848D981306C00288F389E02DAA
:1002800080818F7D80830895EF92FF920F931F935B
:10029000CF93DF93EC0181E0888F9B8D8C8D981339
:1002A0001AC0E889F989808185FF15C09FB7F89445
:1002B000EE89FF896083E889F98980818370806491
:1002C00080839FBF81E090E0DF91CF911F910F91DC
:1002D000FF90EF900895F62E0B8D10E00F5F1F4FEB
:1002E0000F731127E02E8C8D8E110CC00FB607FCFA
:1002F000FACFE889F989808185FFF5CFCE010E9488
:100300002201F1CFEB8DEC0FFD2FF11DE35AFF4FD2
:10031000F0829FB7F8940B8FEA89FB898081806215
:10032000CFCF0F931F93CF93DF938C01D0E0C0E02A
:10033000F801EC0FFD1F6491662341F08DEE96E00D
:100340000E944401892B11F02196F2CFCE01DF915A
:10035000CF911F910F910895CF93DF93EC01888D7A
:100360008823B9F0AA89BB89E889F9898C9185FD30
:1003700003C0808186FD0DC00FB607FCF7CF8C91BE
:1003800085FFF2CF808185FFEDCFCE010E94220153
:10039000E9CFDF91CF910895FC0101900020E9F7AA
:1003A0003197AF01481B590BBC018DEE96E00C94C0
:1003B000A400CF93DF930E949101EC0186E291E0CB
:1003C0000E94CC018C0F9D1FDF91CF9108958F92D9
:1003D0009F92AF92BF920F931F93CF93DF93CDB7AE
:1003E000DEB7A1970FB6F894DEBF0FBECDBF19A23E
:1003F000423008F44AE08E010F5D1F4F842E912C8D
:10040000B12CA12CA50194010E945308E62FB9013B
:10041000CA01EA30F4F4E05DD801EE938D01232B9C
:10042000242B252B79F790E080E0109719F0CD016F
:100430000E94CC01A1960FB6F894DEBF0FBECDBFCF
:10044000DF91CF911F910F91BF90AF909F908F90B0
:100450000895E95CE1CF4F925F926F927F928F9205
:100460009F92AF92BF92CF92DF92EF92FF920F9343
:100470001F93CF936B017C01742EAC019B010E94F2
:10048000010B882399F089E291E0CF911F910F91A0
:10049000FF90EF90DF90CF90BF90AF909F908F90A4
:1004A0007F906F905F904F900C94CC014601570164
:1004B000E894B7F82FEF3FEF4FE75FE7C501B401CE
:1004C0000E94010B81110DC02FEF3FEF4FE75FE757
:1004D000C501B4010E94F10818161CF48DE291E0E8
:1004E000D4CF2FEF3FEF4FE75FE4C701B6010E9483
:1004F000490A18161CF481E391E0C7CF2FEF3FEFB4
:100500004FE75FECC701B6010E94F10887FDF3CF0A
:1005100020E030E0A901C701B6010E94F10810E017
:1005200000E087FF0AC06DE28DEE96E00E94440174
:100530008C01F7FAF094F7F8F094C0E060E070E016
:1005400080E09FE37C1641F020E030E040E251E49F
:100550000E94F608CF5FF6CFA70196010E9485089A
:100560002B013C010E9468094B015C014AE00E949A
:10057000E7017C01E00EF11ECC23C1F1C501B401FD
:100580000E9497099B01AC01C301B2010E9484083B
:100590004B015C016EE28DEE96E00E944401E80E94
:1005A000F91EC15018F120E030E040E251E4C501ED
:1005B000B4010E944E0A2B013C010E9468094B01C4
:1005C000B12CA12C4AE0C501B4010E94E701E80E5C
:1005D000F91EC501B4010E9497099B01AC01C3013A
:1005E000B2010E9484084B015C01DBCFC701CF91AF
:1005F0001F910F91FF90EF90DF90CF90BF90AF9041
:100600009F908F907F906F905F904F900895CF93C1
:10061000DF9344E00E942B02EC0186E291E00E940D
:10062000CC018C0F9D1FDF91CF910895CF93DF9365
:1006300087E790E00E9491011092420110924101DF
:10064000C3E1DCE4809141019091420143970CF0B9
:1006500070C085E790E00E949101109240011092D5
:100660003F0120913F0130914001809141019091E3
:100670004201233131050CF047C02231310569F5C3
:1006800082319105C9F46091E3067091E40680918E
:10069000E5069091E60644E00E942B0283E790E095
:1006A0000E94910180913F019091400101969093A9
:1006B000400180933F01D5CFD89FF001D99FF00D25
:1006C0001124E557FE4F608171818281938144E05E
:1006D0000E942B0280E790E0E3CFC89FF001C99F02
:1006E000F00D1124E20FF31FEE0FFF1FEE0FFF1F9F
:1006F000ED5BFE4F608171818281938144E00E94B5
:100700002B028DE690E0CCCF429771F48BE690E01F
:100710000E94910180914101909142010196909334
:100720004201809341018ECF8AE690E00E94D90178
:10073000F1CF89E690E00E94D90188E690E0DF9150
:10074000CF910C94D9011F920F920FB60F921124E2
:100750002F933F934F935F936F937F938F939F93C9
:10076000AF93BF93EF93FF938DEE96E00E9422012B
:10077000FF91EF91BF91AF919F918F917F916F9179
:100780005F914F913F912F910F900FBE0F901F904F
:1007900018951F920F920FB60F9211242F938F93DB
:1007A0009F93EF93FF93E091FD06F091FE06808109
:1007B000E0910307F091040782FD1BC090818091B6
:1007C00006078F5F8F7320910707821741F0E09132
:1007D0000607F0E0E351F94F958F80930607FF91EC
:1007E000EF919F918F912F910F900FBE0F901F90BF
:1007F00018958081F4CF1F920F920FB60F9211249B
:100800002F933F938F939F93AF93BF938091E9066C
:100810009091EA06A091EB06B091EC0630913A0176
:1008200023E0230F2D3758F50196A11DB11D20930C
:100830003A018093E9069093EA06A093EB06B09301
:10084000EC068091360190913701A0913801B0916A
:1008500039010196A11DB11D809336019093370196
:10086000A0933801B0933901BF91AF919F918F91BF
:100870003F912F910F900FBE0F901F90189526E873
:10088000230F0296A11DB11DD2CFCF93DF93CDB719
:10089000DEB728970FB6F894DEBF0FBECDBF7894B1
:1008A00084B5826084BD84B5816084BD85B5826075
:1008B00085BD85B5816085BD80916E008160809326
:1008C0006E0010928100809181008260809381008F
:1008D000809181008160809381008091800081609F
:1008E000809380008091B10084608093B1008091FA
:1008F000B00081608093B00080917A008460809322
:100900007A0080917A00826080937A0080917A00E8
:10091000816080937A0080917A00806880937A0069
:100920001092C1008DEE90E00E94D901E091FD0689
:10093000F091FE0682E08083E091F906F091FA06DC
:100940001082E091FB06F091FC068FEC8083109200
:100950000507E0910107F091020786E08083E091AE
:10096000FF06F0910007808180618083E091FF069F
:10097000F0910007808188608083E091FF06F0910C
:100980000007808180688083E091FF06F091000776
:1009900080818F7D808380E480937C0080917A00C9
:1009A000806480937A0080917A0086FDFCCF8091EC
:1009B000780060917900762F682F072E000C880B45
:1009C000990B611571058105910511F00E941808B8
:1009D00089E790E00E94D9011092420110924101F2
:1009E000F3E1BF2EA7EBCA2EABE0DA2EE12CF12CFF
:1009F000809141019091420143970CF04AC01092BE
:100A0000400110923F0180913F0190914001439736
:100A1000B4F50E94C90700913F0110914001209157
:100A2000410130914201B29EA001B39E500D1124AC
:100A3000400F511F440F551F440F551F4D5B5E4F14
:100A40005A834983A70196010E9421086F5F7F4F57
:100A50008F4F9F4F0E94990920E030E04AE754E40D
:100A60000E94F608E981FA8160837183828393830F
:100A70000F5F1F4F1093400100933F01C4CF80913F
:100A8000410190914201019690934201809341016E
:100A9000AFCF0E941603409000015090010160907A
:100AA0000201709003018090040190900501A090D4
:100AB0000601B090070123E431E03A83298319014C
:100AC0001C821B8210E000E0C12CD12C7601F801C1
:100AD000EE0FFF1FEE0FFF1FE20DF31D608171810E
:100AE000828193819B01AC010E944E0A9B01AC0163
:100AF000C701B6010E9485086B017C010F5F1F4F83
:100B00000331110521F74B815C81493051050CF00F
:100B1000A8C00E94C10A9B01AC01C301B2010E949E
:100B20004E0A2B013C018B819C8120E030E040E8A3
:100B30005FE3099734F0C701B6010E94C10A9B0127
:100B4000AC01C501B4010E944E0A4B015C01EB816E
:100B5000FC813196FC83EB83FCE42F0E311C2B814E
:100B60003C812331310509F0ADCF30934001209312
:100B70003F013093420120934101C0923B01D0924A
:100B80003C01E0923D01F0923E0140920001509202
:100B9000010160920201709203018092040190921F
:100BA0000501A0920601B092070181E890E00E9441
:100BB000D90110924201109241018091E706909173
:100BC000E80623E4C22E21E0D22E2601712C612CEE
:100BD00018861F824F8158854F5F5F4F58874F831C
:100BE0001A01F201E45BFF4FFE83ED837F01F3E125
:100BF0002F163104DCF124E0620E711C30E5C30EC7
:100C0000D11C4D805E804F8158854331510511F7CD
:100C10009093E8068093E7064F81588550934001F2
:100C200040933F0150934201409341010E941603BB
:100C30008090080190900901A0900A01B0900B01EA
:100C4000C0900C01D0900D01E0900E01F0900F01CA
:100C50001C821B82E981FA8160817181828193818A
:100C60004EC020E030E040E85FE357CFF60120813E
:100C7000318142815381F701E60DF71D6081718159
:100C8000828193810E94F6084B015C0110E000E034
:100C90009701200F311F3C832B83F201E00FF11FDE
:100CA0002081318142815381C501B4010E944E0AE5
:100CB0009B01AC01EB81FC81608171818281938118
:100CC0000E948408EB81FC8160837183828393831B
:100CD0000C5F1F4F0C341105D9F6FFEF2F1A3F0A96
:100CE0002CE4E20EF11C83E190E081CF60E070E043
:100CF00080E89FE3EB81FC8136970CF4ABCFA50134
:100D000094010E944E0A4B015C012B813C8160E002
:100D100070E080E89FE32930310534F0E981FA8101
:100D20006081718182819381A70196010E944E0AA0
:100D30006B017C012B813C812F5F3F4F3C832B83D8
:100D400049815A81405B5F4F5A8349832331310582
:100D500069F63093E8062093E70620E030E0A90129
:100D6000C501B4010E94F10820E030E040E85FEBEB
:100D700087FD04C020E030E040E85FE3C501B40136
:100D80000E944E0A4B015C01809208019092090179
:100D9000A0920A01B0920B0120E030E0A901C70146
:100DA000B6010E94F10820E030E040E85FEB87FDEB
:100DB00004C020E030E040E85FE3C701B6010E94D4
:100DC0004E0A60930C0170930D0180930E01909375
:100DD0000F0185EE90E00E949101C501B4010E94CF
:100DE00007038DED90E00E94910160910C017091DC
:100DF0000D0180910E0190910F010E9407038BEC71
:100E000090E00E94D9018AEC90E00E94D90183EC25
:100E100090E00E9491016091000170910101809128
:100E20000201909103010E9407038CEB90E00E9465
:100E300091016091040170910501809106019091EA
:100E400007010E9407038AEA90E00E94D90189EA1B
:100E500090E00E94D9018AE990E00E94D90189E9D5
:100E600090E00E94D9012FB7F8946091E906709143
:100E7000EA068091EB069091EC062FBF4AE00E94B3
:100E8000E70186E291E00E94CC0180E090E0892BAE
:100E9000E1F30E940E018823C1F30E940000F5CF08
:100EA000EDEEF6E01382128288EE93E0A0E0B0E06F
:100EB00084839583A683B78388E191E091838083BF
:100EC00085EC90E09587848784EC90E0978786870F
:100ED00080EC90E0918B808B81EC90E0938B828B07
:100EE00082EC90E0958B848B86EC90E0978B868BE0
:100EF000118E128E138E148E08958F929F92AF9240
:100F0000BF92CF92DF92EF92FF92CF93DF93EC01EB
:100F1000688179818A819B816115710581059105BF
:100F200021F464E279ED8BE597E02DE133EF41E0C8
:100F300050E00E94210849015A019B01AC01A7EA37
:100F4000B1E40E9440086B017C01ACEEB4EFA50156
:100F500094010E944E08C60ED71EE81EF91EF7FE29
:100F600006C081E0C81AD108E10880E8F80AC88202
:100F7000D982EA82FB82C701B6019F77DF91CF91C8
:100F8000FF90EF90DF90CF90BF90AF909F908F90A9
:100F900008958F929F92AF92BF92CF92DF92EF927D
:100FA000FF92609110017091110180911201909156
:100FB0001301611571058105910521F464E279ED54
:100FC0008BE597E02DE133EF41E050E00E942108EE
:100FD00049015A019B01AC01A7EAB1E40E94400813
:100FE0006B017C01ACEEB4EFA50194010E944E08A8
:100FF000C60ED71EE81EF91EF7FE06C081E0C81A0D
:10100000D108E10880E8F80AC0921001D0921101DD
:10101000E0921201F0921301C701B6019F77FF9091
:10102000EF90DF90CF90BF90AF909F908F900895FA
:10103000609310017093110180931201909313013A
:101040000895052E97FB1EF400940E94380857FD62
:1010500007D00E94530807FC03D04EF40C943808C4
:1010600050954095309521953F4F4F4F5F4F0895D4
:1010700090958095709561957F4F8F4F9F4F089504
:101080000E947508A59F900DB49F900DA49F800DA0
:10109000911D11240895B7FF0C9440080E94400848
:1010A000821B930B0895A1E21A2EAA1BBB1BFD0104
:1010B0000DC0AA1FBB1FEE1FFF1FA217B307E40737
:1010C000F50720F0A21BB30BE40BF50B661F771F8F
:1010D000881F991F1A9469F760957095809590956F
:1010E0009B01AC01BD01CF010895A29FB001B39F48
:1010F000C001A39F700D811D1124911DB29F700D21
:10110000811D1124911D08955058BB27AA270E94C4
:101110009C080C940F0A0E94010A38F00E94080AE9
:1011200020F039F49F3F19F426F40C94FE090EF4D4
:10113000E095E7FB0C94F809E92F0E94200A58F388
:10114000BA17620773078407950720F079F4A6F5AC
:101150000C94420A0EF4E0950B2EBA2FA02D0B0131
:10116000B90190010C01CA01A0011124FF27591BEC
:1011700099F0593F50F4503E68F11A16F040A22FF2
:10118000232F342F4427585FF3CF46953795279563
:10119000A795F0405395C9F77EF41F16BA0B620B62
:1011A000730B840BBAF09150A1F0FF0FBB1F661FA9
:1011B000771F881FC2F70EC0BA0F621F731F841FEC
:1011C00048F4879577956795B795F7959E3F08F012
:1011D000B0CF9395880F08F09927EE0F97958795D4
:1011E00008950E94D40908F481E008950E940A0934
:1011F0000C940F0A0E94080A58F00E94010A40F05D
:1012000029F45F3F29F00C94F80951110C94430A1A
:101210000C94FE090E94200A68F39923B1F3552328
:1012200091F3951B550BBB27AA27621773078407F9
:1012300038F09F5F5F4F220F331F441FAA1FA9F38F
:1012400035D00E2E3AF0E0E832D091505040E6957D
:10125000001CCAF72BD0FE2F29D0660F771F881FDE
:10126000BB1F261737074807AB07B0E809F0BB0BD1
:10127000802DBF01FF2793585F4F3AF09E3F5105E5
:1012800078F00C94F8090C94430A5F3FE4F3983E1D
:10129000D4F3869577956795B795F7959F5FC9F7CE
:1012A000880F911D9695879597F90895E1E0660F4F
:1012B000771F881FBB1F621773078407BA0720F0C8
:1012C000621B730B840BBA0BEE1F88F7E095089531
:1012D0000E94280A88F09F5798F0B92F9927B75194
:1012E000B0F0E1F0660F771F881F991F1AF0BA95CA
:1012F000C9F714C0B13091F00E94420AB1E00895DC
:101300000C94420A672F782F8827B85F39F0B93FCD
:10131000CCF3869577956795B395D9F73EF490957C
:101320008095709561957F4F8F4F9F4F0895E894FA
:1013300009C097FB3EF490958095709561957F4F1D
:101340008F4F9F4F9923A9F0F92F96E9BB279395CB
:10135000F695879577956795B795F111F8CFFAF4DB
:10136000BB0F11F460FF1BC06F5F7F4F8F4F9F4F0C
:1013700016C0882311F096E911C0772321F09EE86A
:10138000872F762F05C0662371F096E8862F70E0D0
:1013900060E02AF09A95660F771F881FDAF7880FAA
:1013A0009695879597F90895990F0008550FAA0B00
:1013B000E0E8FEEF16161706E807F907C0F0121668
:1013C0001306E407F50798F0621B730B840B950B6B
:1013D00039F40A2661F0232B242B252B21F40895C0
:1013E0000A2609F4A140A6958FEF811D811D08955D
:1013F00097F99F6780E870E060E008959FEF80ECC8
:10140000089500240A94161617061806090608956A
:1014100000240A9412161306140605060895092ED0
:101420000394000C11F4882352F0BB0F40F4BF2B3F
:1014300011F460FF04C06F5F7F4F8F4F9F4F08957F
:1014400057FD9058440F551F59F05F3F71F0479575
:10145000880F97FB991F61F09F3F79F0879508955A
:10146000121613061406551FF2CF4695F1DF08C079
:10147000161617061806991FF1CF86957105610596
:1014800008940895E894BB2766277727CB0197F93E
:1014900008950E94D40908F48FEF08950E94610A0C
:1014A0000C940F0A0E94010A38F00E94080A20F0EA
:1014B000952311F00C94F8090C94FE0911240C9456
:1014C000430A0E94200A70F3959FC1F3950F50E0E4
:1014D000551F629FF001729FBB27F00DB11D639FE6
:1014E000AA27F00DB11DAA1F649F6627B00DA11D8C
:1014F000661F829F2227B00DA11D621F739FB00D32
:10150000A11D621F839FA00D611D221F749F3327A1
:10151000A00D611D231F849F600D211D822F762F3A
:101520006A2F11249F5750409AF0F1F088234AF017
:10153000EE0FFF1FBB1F661F771F881F9150504083
:10154000A9F79E3F510580F00C94F8090C94430ACA
:101550005F3FE4F3983ED4F3869577956795B7950A
:10156000F795E7959F5FC1F7FE2B880F911D969524
:10157000879597F9089519F416F40C94FE090C94C4
:10158000060B0E94280AB8F39923C9F3B6F39F57B4
:10159000550B87FF0E94140B0024A0E640EA90013F
:1015A00080585695979528F4805C660F771F881FA2
:1015B00020F026173707480730F4621B730B840BA3
:1015C000202931294A2BA6951794079420253125E7
:1015D0004A2758F7660F771F881F20F0261737070E
:1015E000480730F4620B730B840B200D311D411D35
:1015F000A09581F7B901842F9158880F969587950A
:1016000008950E94D409880B990B08959F3F31F0EB
:10161000915020F4879577956795B795880F911D20
:101620009695879597F9089591505040660F771FCA
:10163000881FD2F70895EE0FFF1F0590F491E02D5B
:101640000994F894FFCF0000803F0000803F000025
:10165000803F0000803F01000000000000004401C6
:10166000A400D100AC010201E000F4000D0A006EFC
:0C167000616E00696E66006F7666000017
:107E0000112484B714BE81FFF0D085E080938100F7
:107E100082E08093C00088E18093C10086E0809377
:107E2000C20080E18093C4008EE0C9D0259A86E02C
:107E300020E33CEF91E0309385002093840096BBD3
:107E4000B09BFECF1D9AA8958150A9F7CC24DD24C4
:107E500088248394B5E0AB2EA1E19A2EF3E0BF2EE7
:107E6000A2D0813461F49FD0082FAFD0023811F036
:107E7000013811F484E001C083E08DD089C08234E0
:107E800011F484E103C0853419F485E0A6D080C0E4
:107E9000853579F488D0E82EFF2485D0082F10E0AE
:107EA000102F00270E291F29000F111F8ED06801E7
:107EB0006FC0863521F484E090D080E0DECF843638
:107EC00009F040C070D06FD0082F6DD080E0C81688
:107ED00080E7D80618F4F601B7BEE895C0E0D1E017
:107EE00062D089930C17E1F7F0E0CF16F0E7DF06D8
:107EF00018F0F601B7BEE89568D007B600FCFDCFD4
:107F0000A601A0E0B1E02C9130E011968C91119780
:107F100090E0982F8827822B932B1296FA010C0160
:107F200087BEE89511244E5F5F4FF1E0A038BF0790
:107F300051F7F601A7BEE89507B600FCFDCF97BE46
:107F4000E89526C08437B1F42ED02DD0F82E2BD052
:107F50003CD0F601EF2C8F010F5F1F4F84911BD097
:107F6000EA94F801C1F70894C11CD11CFA94CF0C13
:107F7000D11C0EC0853739F428D08EE10CD085E9AC
:107F80000AD08FE07ACF813511F488E018D01DD067
:107F900080E101D065CF982F8091C00085FFFCCF94
:107FA0009093C60008958091C00087FFFCCF809118
:107FB000C00084FD01C0A8958091C6000895E0E648
:107FC000F0E098E1908380830895EDDF803219F02E
:107FD00088E0F5DFFFCF84E1DECF1F93182FE3DFCA
:107FE0001150E9F7F2DF1F91089580E0E8DFEE27F6
:047FF000FF270994CA
:027FFE00040479
:00000001FF
